{"abi":[{"type":"function","name":"getCommitment","inputs":[{"name":"poolId","type":"bytes32","internalType":"PoolId"},{"name":"positionKey","type":"bytes32","internalType":"bytes32"}],"outputs":[{"name":"timeCommitment","type":"tuple","internalType":"struct TimeCommitment","components":[{"name":"liquidityProvider","type":"address","internalType":"address"},{"name":"longTerm","type":"bool","internalType":"bool"},{"name":"numberOfBlocks","type":"uint256","internalType":"uint256"},{"name":"startingBlockNumber","type":"uint256","internalType":"uint256"}]}],"stateMutability":"view"},{"type":"function","name":"getPoolCommitments","inputs":[{"name":"poolId","type":"bytes32","internalType":"PoolId"}],"outputs":[{"name":"","type":"tuple[]","internalType":"struct IndexedTimeCommitments[]","components":[{"name":"positionKey","type":"bytes32","internalType":"bytes32"},{"name":"timeCommitment","type":"tuple","internalType":"struct TimeCommitment","components":[{"name":"liquidityProvider","type":"address","internalType":"address"},{"name":"longTerm","type":"bool","internalType":"bool"},{"name":"numberOfBlocks","type":"uint256","internalType":"uint256"},{"name":"startingBlockNumber","type":"uint256","internalType":"uint256"}]}]}],"stateMutability":"view"},{"type":"function","name":"getPoolExpiredCommitments","inputs":[{"name":"poolId","type":"bytes32","internalType":"PoolId"}],"outputs":[{"name":"","type":"tuple[]","internalType":"struct IndexedTimeCommitments[]","components":[{"name":"positionKey","type":"bytes32","internalType":"bytes32"},{"name":"timeCommitment","type":"tuple","internalType":"struct TimeCommitment","components":[{"name":"liquidityProvider","type":"address","internalType":"address"},{"name":"longTerm","type":"bool","internalType":"bool"},{"name":"numberOfBlocks","type":"uint256","internalType":"uint256"},{"name":"startingBlockNumber","type":"uint256","internalType":"uint256"}]}]}],"stateMutability":"view"}],"bytecode":{"object":"0x6080604052348015600e575f80fd5b50610af68061001c5f395ff3fe608060405234801561000f575f80fd5b506004361061003f575f3560e01c806325f143d91461004357806368b6ff0914610073578063c19cc87a146100a3575b5f80fd5b61005d600480360381019061005891906106f8565b6100d3565b60405161006a91906108cb565b60405180910390f35b61008d600480360381019061008891906106f8565b6102a9565b60405161009a91906108cb565b60405180910390f35b6100bd60048036038101906100b89190610915565b61058b565b6040516100ca91906109a6565b60405180910390f35b60605f60015f8481526020019081526020015f208054905067ffffffffffffffff811115610104576101036109bf565b5b60405190808252806020026020018201604052801561013d57816020015b61012a610663565b8152602001906001900390816101225790505b5090505f5b60015f8581526020019081526020015f208054905081101561029f57604051806040016040528060015f8781526020019081526020015f20838154811061018c5761018b6109ec565b5b905f5260205f20015481526020015f808781526020019081526020015f205f60015f8981526020019081526020015f2085815481106101ce576101cd6109ec565b5b905f5260205f20015481526020019081526020015f206040518060800160405290815f82015f9054906101000a900473ffffffffffffffffffffffffffffffffffffffff1673ffffffffffffffffffffffffffffffffffffffff1673ffffffffffffffffffffffffffffffffffffffff1681526020015f820160149054906101000a900460ff1615151515815260200160018201548152602001600282015481525050815250828281518110610287576102866109ec565b5b60200260200101819052508080600101915050610142565b5080915050919050565b60605f805f90505b60015f8581526020019081526020015f20805490508110156103d9575f60015f8681526020019081526020015f2082815481106102f1576102f06109ec565b5b905f5260205f20015490505f805f8781526020019081526020015f205f8381526020019081526020015f206040518060800160405290815f82015f9054906101000a900473ffffffffffffffffffffffffffffffffffffffff1673ffffffffffffffffffffffffffffffffffffffff1673ffffffffffffffffffffffffffffffffffffffff1681526020015f820160149054906101000a900460ff161515151581526020016001820154815260200160028201548152505090506103b481610647565b4310156103ca5783806103c690610a46565b9450505b505080806001019150506102b1565b505f8167ffffffffffffffff8111156103f5576103f46109bf565b5b60405190808252806020026020018201604052801561042e57816020015b61041b610663565b8152602001906001900390816104135790505b5090505f5b60015f8681526020019081526020015f2080549050811015610580575f60015f8781526020019081526020015f208281548110610473576104726109ec565b5b905f5260205f20015490505f805f8881526020019081526020015f205f8381526020019081526020015f206040518060800160405290815f82015f9054906101000a900473ffffffffffffffffffffffffffffffffffffffff1673ffffffffffffffffffffffffffffffffffffffff1673ffffffffffffffffffffffffffffffffffffffff1681526020015f820160149054906101000a900460ff1615151515815260200160018201548152602001600282015481525050905061053681610647565b43101561057157604051806040016040528083815260200182815250848481518110610565576105646109ec565b5b60200260200101819052505b50508080600101915050610433565b508092505050919050565b610593610685565b5f808481526020019081526020015f205f8381526020019081526020015f206040518060800160405290815f82015f9054906101000a900473ffffffffffffffffffffffffffffffffffffffff1673ffffffffffffffffffffffffffffffffffffffff1673ffffffffffffffffffffffffffffffffffffffff1681526020015f820160149054906101000a900460ff1615151515815260200160018201548152602001600282015481525050905092915050565b5f8160400151826060015161065c9190610a8d565b9050919050565b60405180604001604052805f801916815260200161067f610685565b81525090565b60405180608001604052805f73ffffffffffffffffffffffffffffffffffffffff1681526020015f151581526020015f81526020015f81525090565b5f80fd5b5f819050919050565b6106d7816106c5565b81146106e1575f80fd5b50565b5f813590506106f2816106ce565b92915050565b5f6020828403121561070d5761070c6106c1565b5b5f61071a848285016106e4565b91505092915050565b5f81519050919050565b5f82825260208201905092915050565b5f819050602082019050919050565b610755816106c5565b82525050565b5f73ffffffffffffffffffffffffffffffffffffffff82169050919050565b5f6107848261075b565b9050919050565b6107948161077a565b82525050565b5f8115159050919050565b6107ae8161079a565b82525050565b5f819050919050565b6107c6816107b4565b82525050565b608082015f8201516107e05f85018261078b565b5060208201516107f360208501826107a5565b50604082015161080660408501826107bd565b50606082015161081960608501826107bd565b50505050565b60a082015f8201516108335f85018261074c565b50602082015161084660208501826107cc565b50505050565b5f610857838361081f565b60a08301905092915050565b5f602082019050919050565b5f61087982610723565b610883818561072d565b935061088e8361073d565b805f5b838110156108be5781516108a5888261084c565b97506108b083610863565b925050600181019050610891565b5085935050505092915050565b5f6020820190508181035f8301526108e3818461086f565b905092915050565b6108f4816106c5565b81146108fe575f80fd5b50565b5f8135905061090f816108eb565b92915050565b5f806040838503121561092b5761092a6106c1565b5b5f610938858286016106e4565b925050602061094985828601610901565b9150509250929050565b608082015f8201516109675f85018261078b565b50602082015161097a60208501826107a5565b50604082015161098d60408501826107bd565b5060608201516109a060608501826107bd565b50505050565b5f6080820190506109b95f830184610953565b92915050565b7f4e487b71000000000000000000000000000000000000000000000000000000005f52604160045260245ffd5b7f4e487b71000000000000000000000000000000000000000000000000000000005f52603260045260245ffd5b7f4e487b71000000000000000000000000000000000000000000000000000000005f52601160045260245ffd5b5f610a50826107b4565b91507fffffffffffffffffffffffffffffffffffffffffffffffffffffffffffffffff8203610a8257610a81610a19565b5b600182019050919050565b5f610a97826107b4565b9150610aa2836107b4565b9250828201905080821115610aba57610ab9610a19565b5b9291505056fea2646970667358221220e1196e51f95b887159ddfc1f45edc5f1c1dee0567906a8525b2f5652e75b5a0364736f6c634300081a0033","linkReferences":{}},"methodIdentifiers":{"getCommitment(bytes32,bytes32)":"c19cc87a","getPoolCommitments(bytes32)":"25f143d9","getPoolExpiredCommitments(bytes32)":"68b6ff09"},"id":91}