{"abi":[{"type":"constructor","inputs":[{"name":"poolManager","type":"address","internalType":"contract IPoolManager"}],"stateMutability":"nonpayable"},{"type":"function","name":"afterAddLiquidity","inputs":[{"name":"sender","type":"address","internalType":"address"},{"name":"key","type":"tuple","internalType":"struct PoolKey","components":[{"name":"currency0","type":"address","internalType":"Currency"},{"name":"currency1","type":"address","internalType":"Currency"},{"name":"fee","type":"uint24","internalType":"uint24"},{"name":"tickSpacing","type":"int24","internalType":"int24"},{"name":"hooks","type":"address","internalType":"contract IHooks"}]},{"name":"params","type":"tuple","internalType":"struct ModifyLiquidityParams","components":[{"name":"tickLower","type":"int24","internalType":"int24"},{"name":"tickUpper","type":"int24","internalType":"int24"},{"name":"liquidityDelta","type":"int256","internalType":"int256"},{"name":"salt","type":"bytes32","internalType":"bytes32"}]},{"name":"delta","type":"int256","internalType":"BalanceDelta"},{"name":"feesAccrued","type":"int256","internalType":"BalanceDelta"},{"name":"hookData","type":"bytes","internalType":"bytes"}],"outputs":[{"name":"","type":"bytes4","internalType":"bytes4"},{"name":"","type":"int256","internalType":"BalanceDelta"}],"stateMutability":"nonpayable"},{"type":"function","name":"afterDonate","inputs":[{"name":"sender","type":"address","internalType":"address"},{"name":"key","type":"tuple","internalType":"struct PoolKey","components":[{"name":"currency0","type":"address","internalType":"Currency"},{"name":"currency1","type":"address","internalType":"Currency"},{"name":"fee","type":"uint24","internalType":"uint24"},{"name":"tickSpacing","type":"int24","internalType":"int24"},{"name":"hooks","type":"address","internalType":"contract IHooks"}]},{"name":"amount0","type":"uint256","internalType":"uint256"},{"name":"amount1","type":"uint256","internalType":"uint256"},{"name":"hookData","type":"bytes","internalType":"bytes"}],"outputs":[{"name":"","type":"bytes4","internalType":"bytes4"}],"stateMutability":"nonpayable"},{"type":"function","name":"afterInitialize","inputs":[{"name":"sender","type":"address","internalType":"address"},{"name":"key","type":"tuple","internalType":"struct PoolKey","components":[{"name":"currency0","type":"address","internalType":"Currency"},{"name":"currency1","type":"address","internalType":"Currency"},{"name":"fee","type":"uint24","internalType":"uint24"},{"name":"tickSpacing","type":"int24","internalType":"int24"},{"name":"hooks","type":"address","internalType":"contract IHooks"}]},{"name":"sqrtPriceX96","type":"uint160","internalType":"uint160"},{"name":"tick","type":"int24","internalType":"int24"}],"outputs":[{"name":"","type":"bytes4","internalType":"bytes4"}],"stateMutability":"nonpayable"},{"type":"function","name":"afterRemoveLiquidity","inputs":[{"name":"sender","type":"address","internalType":"address"},{"name":"key","type":"tuple","internalType":"struct PoolKey","components":[{"name":"currency0","type":"address","internalType":"Currency"},{"name":"currency1","type":"address","internalType":"Currency"},{"name":"fee","type":"uint24","internalType":"uint24"},{"name":"tickSpacing","type":"int24","internalType":"int24"},{"name":"hooks","type":"address","internalType":"contract IHooks"}]},{"name":"params","type":"tuple","internalType":"struct ModifyLiquidityParams","components":[{"name":"tickLower","type":"int24","internalType":"int24"},{"name":"tickUpper","type":"int24","internalType":"int24"},{"name":"liquidityDelta","type":"int256","internalType":"int256"},{"name":"salt","type":"bytes32","internalType":"bytes32"}]},{"name":"delta","type":"int256","internalType":"BalanceDelta"},{"name":"feesAccrued","type":"int256","internalType":"BalanceDelta"},{"name":"hookData","type":"bytes","internalType":"bytes"}],"outputs":[{"name":"","type":"bytes4","internalType":"bytes4"},{"name":"","type":"int256","internalType":"BalanceDelta"}],"stateMutability":"nonpayable"},{"type":"function","name":"afterSwap","inputs":[{"name":"sender","type":"address","internalType":"address"},{"name":"key","type":"tuple","internalType":"struct PoolKey","components":[{"name":"currency0","type":"address","internalType":"Currency"},{"name":"currency1","type":"address","internalType":"Currency"},{"name":"fee","type":"uint24","internalType":"uint24"},{"name":"tickSpacing","type":"int24","internalType":"int24"},{"name":"hooks","type":"address","internalType":"contract IHooks"}]},{"name":"params","type":"tuple","internalType":"struct SwapParams","components":[{"name":"zeroForOne","type":"bool","internalType":"bool"},{"name":"amountSpecified","type":"int256","internalType":"int256"},{"name":"sqrtPriceLimitX96","type":"uint160","internalType":"uint160"}]},{"name":"delta","type":"int256","internalType":"BalanceDelta"},{"name":"hookData","type":"bytes","internalType":"bytes"}],"outputs":[{"name":"","type":"bytes4","internalType":"bytes4"},{"name":"","type":"int128","internalType":"int128"}],"stateMutability":"nonpayable"},{"type":"function","name":"beforeAddLiquidity","inputs":[{"name":"sender","type":"address","internalType":"address"},{"name":"key","type":"tuple","internalType":"struct PoolKey","components":[{"name":"currency0","type":"address","internalType":"Currency"},{"name":"currency1","type":"address","internalType":"Currency"},{"name":"fee","type":"uint24","internalType":"uint24"},{"name":"tickSpacing","type":"int24","internalType":"int24"},{"name":"hooks","type":"address","internalType":"contract IHooks"}]},{"name":"params","type":"tuple","internalType":"struct ModifyLiquidityParams","components":[{"name":"tickLower","type":"int24","internalType":"int24"},{"name":"tickUpper","type":"int24","internalType":"int24"},{"name":"liquidityDelta","type":"int256","internalType":"int256"},{"name":"salt","type":"bytes32","internalType":"bytes32"}]},{"name":"hookData","type":"bytes","internalType":"bytes"}],"outputs":[{"name":"","type":"bytes4","internalType":"bytes4"}],"stateMutability":"nonpayable"},{"type":"function","name":"beforeDonate","inputs":[{"name":"sender","type":"address","internalType":"address"},{"name":"key","type":"tuple","internalType":"struct PoolKey","components":[{"name":"currency0","type":"address","internalType":"Currency"},{"name":"currency1","type":"address","internalType":"Currency"},{"name":"fee","type":"uint24","internalType":"uint24"},{"name":"tickSpacing","type":"int24","internalType":"int24"},{"name":"hooks","type":"address","internalType":"contract IHooks"}]},{"name":"amount0","type":"uint256","internalType":"uint256"},{"name":"amount1","type":"uint256","internalType":"uint256"},{"name":"hookData","type":"bytes","internalType":"bytes"}],"outputs":[{"name":"","type":"bytes4","internalType":"bytes4"}],"stateMutability":"nonpayable"},{"type":"function","name":"beforeInitialize","inputs":[{"name":"sender","type":"address","internalType":"address"},{"name":"key","type":"tuple","internalType":"struct PoolKey","components":[{"name":"currency0","type":"address","internalType":"Currency"},{"name":"currency1","type":"address","internalType":"Currency"},{"name":"fee","type":"uint24","internalType":"uint24"},{"name":"tickSpacing","type":"int24","internalType":"int24"},{"name":"hooks","type":"address","internalType":"contract IHooks"}]},{"name":"sqrtPriceX96","type":"uint160","internalType":"uint160"}],"outputs":[{"name":"","type":"bytes4","internalType":"bytes4"}],"stateMutability":"nonpayable"},{"type":"function","name":"beforeRemoveLiquidity","inputs":[{"name":"sender","type":"address","internalType":"address"},{"name":"key","type":"tuple","internalType":"struct PoolKey","components":[{"name":"currency0","type":"address","internalType":"Currency"},{"name":"currency1","type":"address","internalType":"Currency"},{"name":"fee","type":"uint24","internalType":"uint24"},{"name":"tickSpacing","type":"int24","internalType":"int24"},{"name":"hooks","type":"address","internalType":"contract IHooks"}]},{"name":"params","type":"tuple","internalType":"struct ModifyLiquidityParams","components":[{"name":"tickLower","type":"int24","internalType":"int24"},{"name":"tickUpper","type":"int24","internalType":"int24"},{"name":"liquidityDelta","type":"int256","internalType":"int256"},{"name":"salt","type":"bytes32","internalType":"bytes32"}]},{"name":"hookData","type":"bytes","internalType":"bytes"}],"outputs":[{"name":"","type":"bytes4","internalType":"bytes4"}],"stateMutability":"nonpayable"},{"type":"function","name":"beforeSwap","inputs":[{"name":"sender","type":"address","internalType":"address"},{"name":"key","type":"tuple","internalType":"struct PoolKey","components":[{"name":"currency0","type":"address","internalType":"Currency"},{"name":"currency1","type":"address","internalType":"Currency"},{"name":"fee","type":"uint24","internalType":"uint24"},{"name":"tickSpacing","type":"int24","internalType":"int24"},{"name":"hooks","type":"address","internalType":"contract IHooks"}]},{"name":"params","type":"tuple","internalType":"struct SwapParams","components":[{"name":"zeroForOne","type":"bool","internalType":"bool"},{"name":"amountSpecified","type":"int256","internalType":"int256"},{"name":"sqrtPriceLimitX96","type":"uint160","internalType":"uint160"}]},{"name":"hookData","type":"bytes","internalType":"bytes"}],"outputs":[{"name":"","type":"bytes4","internalType":"bytes4"},{"name":"","type":"int256","internalType":"BeforeSwapDelta"},{"name":"","type":"uint24","internalType":"uint24"}],"stateMutability":"nonpayable"},{"type":"function","name":"getCommitment","inputs":[{"name":"poolId","type":"bytes32","internalType":"PoolId"},{"name":"positionKey","type":"bytes32","internalType":"bytes32"}],"outputs":[{"name":"timeCommitment","type":"tuple","internalType":"struct TimeCommitment","components":[{"name":"liquidityProvider","type":"address","internalType":"address"},{"name":"longTerm","type":"bool","internalType":"bool"},{"name":"numberOfBlocks","type":"uint256","internalType":"uint256"},{"name":"startingBlockNumber","type":"uint256","internalType":"uint256"}]}],"stateMutability":"view"},{"type":"function","name":"getHookPermissions","inputs":[],"outputs":[{"name":"permissions","type":"tuple","internalType":"struct Hooks.Permissions","components":[{"name":"beforeInitialize","type":"bool","internalType":"bool"},{"name":"afterInitialize","type":"bool","internalType":"bool"},{"name":"beforeAddLiquidity","type":"bool","internalType":"bool"},{"name":"afterAddLiquidity","type":"bool","internalType":"bool"},{"name":"beforeRemoveLiquidity","type":"bool","internalType":"bool"},{"name":"afterRemoveLiquidity","type":"bool","internalType":"bool"},{"name":"beforeSwap","type":"bool","internalType":"bool"},{"name":"afterSwap","type":"bool","internalType":"bool"},{"name":"beforeDonate","type":"bool","internalType":"bool"},{"name":"afterDonate","type":"bool","internalType":"bool"},{"name":"beforeSwapReturnDelta","type":"bool","internalType":"bool"},{"name":"afterSwapReturnDelta","type":"bool","internalType":"bool"},{"name":"afterAddLiquidityReturnDelta","type":"bool","internalType":"bool"},{"name":"afterRemoveLiquidityReturnDelta","type":"bool","internalType":"bool"}]}],"stateMutability":"pure"},{"type":"function","name":"getPoolCommitments","inputs":[{"name":"poolId","type":"bytes32","internalType":"PoolId"}],"outputs":[{"name":"","type":"tuple[]","internalType":"struct IndexedTimeCommitments[]","components":[{"name":"positionKey","type":"bytes32","internalType":"bytes32"},{"name":"timeCommitment","type":"tuple","internalType":"struct TimeCommitment","components":[{"name":"liquidityProvider","type":"address","internalType":"address"},{"name":"longTerm","type":"bool","internalType":"bool"},{"name":"numberOfBlocks","type":"uint256","internalType":"uint256"},{"name":"startingBlockNumber","type":"uint256","internalType":"uint256"}]}]}],"stateMutability":"view"},{"type":"function","name":"getPoolExpiredCommitments","inputs":[{"name":"poolId","type":"bytes32","internalType":"PoolId"}],"outputs":[{"name":"","type":"tuple[]","internalType":"struct IndexedTimeCommitments[]","components":[{"name":"positionKey","type":"bytes32","internalType":"bytes32"},{"name":"timeCommitment","type":"tuple","internalType":"struct TimeCommitment","components":[{"name":"liquidityProvider","type":"address","internalType":"address"},{"name":"longTerm","type":"bool","internalType":"bool"},{"name":"numberOfBlocks","type":"uint256","internalType":"uint256"},{"name":"startingBlockNumber","type":"uint256","internalType":"uint256"}]}]}],"stateMutability":"view"},{"type":"function","name":"getPositionPoolTimeCommitment","inputs":[{"name":"lpPositionKey","type":"bytes32","internalType":"bytes32"},{"name":"poolId","type":"bytes32","internalType":"PoolId"}],"outputs":[{"name":"timeCommitment","type":"tuple","internalType":"struct TimeCommitment","components":[{"name":"liquidityProvider","type":"address","internalType":"address"},{"name":"longTerm","type":"bool","internalType":"bool"},{"name":"numberOfBlocks","type":"uint256","internalType":"uint256"},{"name":"startingBlockNumber","type":"uint256","internalType":"uint256"}]}],"stateMutability":"view"},{"type":"function","name":"getTimeCommitmentKeys","inputs":[{"name":"sender","type":"address","internalType":"address"},{"name":"key","type":"tuple","internalType":"struct PoolKey","components":[{"name":"currency0","type":"address","internalType":"Currency"},{"name":"currency1","type":"address","internalType":"Currency"},{"name":"fee","type":"uint24","internalType":"uint24"},{"name":"tickSpacing","type":"int24","internalType":"int24"},{"name":"hooks","type":"address","internalType":"contract IHooks"}]},{"name":"params","type":"tuple","internalType":"struct ModifyLiquidityParams","components":[{"name":"tickLower","type":"int24","internalType":"int24"},{"name":"tickUpper","type":"int24","internalType":"int24"},{"name":"liquidityDelta","type":"int256","internalType":"int256"},{"name":"salt","type":"bytes32","internalType":"bytes32"}]}],"outputs":[{"name":"lpPositionKey","type":"bytes32","internalType":"bytes32"},{"name":"poolId","type":"bytes32","internalType":"PoolId"}],"stateMutability":"pure"},{"type":"function","name":"poolManager","inputs":[],"outputs":[{"name":"","type":"address","internalType":"contract IPoolManager"}],"stateMutability":"view"},{"type":"event","name":"NewTimeCommitment","inputs":[{"name":"sender","type":"address","indexed":true,"internalType":"address"},{"name":"poolId","type":"bytes32","indexed":true,"internalType":"PoolId"},{"name":"positionKey","type":"bytes32","indexed":true,"internalType":"bytes32"},{"name":"timeCommitment","type":"tuple","indexed":false,"internalType":"struct TimeCommitment","components":[{"name":"liquidityProvider","type":"address","internalType":"address"},{"name":"longTerm","type":"bool","internalType":"bool"},{"name":"numberOfBlocks","type":"uint256","internalType":"uint256"},{"name":"startingBlockNumber","type":"uint256","internalType":"uint256"}]}],"anonymous":false},{"type":"error","name":"HookNotImplemented","inputs":[]},{"type":"error","name":"LockedLiquidity","inputs":[]},{"type":"error","name":"NotPoolManager","inputs":[]}],"bytecode":{"object":"0x60a060405234801561000f575f80fd5b50604051612eb8380380612eb8833981810160405281019061003191906105e9565b80808073ffffffffffffffffffffffffffffffffffffffff1660808173ffffffffffffffffffffffffffffffffffffffff1681525050506100773061007e60201b60201c565b5050610614565b61009b8161009061009e60201b60201c565b61012760201b60201c565b50565b6100a66104fd565b604051806101c001604052805f151581526020015f151581526020016001151581526020015f151581526020016001151581526020015f151581526020015f151581526020015f151581526020015f151581526020015f151581526020015f151581526020015f151581526020015f151581526020015f1515815250905090565b6101526120008373ffffffffffffffffffffffffffffffffffffffff166104b660201b90919060201c565b1515815f01511515141580610199575061018d6110008373ffffffffffffffffffffffffffffffffffffffff166104b660201b90919060201c565b15158160200151151514155b806101d657506101ca6108008373ffffffffffffffffffffffffffffffffffffffff166104b660201b90919060201c565b15158160400151151514155b8061021357506102076104008373ffffffffffffffffffffffffffffffffffffffff166104b660201b90919060201c565b15158160600151151514155b8061025057506102446102008373ffffffffffffffffffffffffffffffffffffffff166104b660201b90919060201c565b15158160800151151514155b8061028d57506102816101008373ffffffffffffffffffffffffffffffffffffffff166104b660201b90919060201c565b15158160a00151151514155b806102c957506102bd60808373ffffffffffffffffffffffffffffffffffffffff166104b660201b90919060201c565b15158160c00151151514155b8061030557506102f960408373ffffffffffffffffffffffffffffffffffffffff166104b660201b90919060201c565b15158160e00151151514155b80610342575061033560208373ffffffffffffffffffffffffffffffffffffffff166104b660201b90919060201c565b1515816101000151151514155b8061037f575061037260108373ffffffffffffffffffffffffffffffffffffffff166104b660201b90919060201c565b1515816101200151151514155b806103bc57506103af60088373ffffffffffffffffffffffffffffffffffffffff166104b660201b90919060201c565b1515816101400151151514155b806103f957506103ec60048373ffffffffffffffffffffffffffffffffffffffff166104b660201b90919060201c565b1515816101600151151514155b80610436575061042960028373ffffffffffffffffffffffffffffffffffffffff166104b660201b90919060201c565b1515816101800151151514155b80610473575061046660018373ffffffffffffffffffffffffffffffffffffffff166104b660201b90919060201c565b1515816101a00151151514155b156104b2576104b18263e65af6a060e01b7bffffffffffffffffffffffffffffffffffffffffffffffffffffffff19166104db60201b90919060201c565b5b5050565b5f8082841673ffffffffffffffffffffffffffffffffffffffff161415905092915050565b815f5273ffffffffffffffffffffffffffffffffffffffff811660045260245ffd5b604051806101c001604052805f151581526020015f151581526020015f151581526020015f151581526020015f151581526020015f151581526020015f151581526020015f151581526020015f151581526020015f151581526020015f151581526020015f151581526020015f151581526020015f151581525090565b5f80fd5b5f73ffffffffffffffffffffffffffffffffffffffff82169050919050565b5f6105a78261057e565b9050919050565b5f6105b88261059d565b9050919050565b6105c8816105ae565b81146105d2575f80fd5b50565b5f815190506105e3816105bf565b92915050565b5f602082840312156105fe576105fd61057a565b5b5f61060b848285016105d5565b91505092915050565b6080516128466106725f395f818161042201528181610521015281816108fb01528181610c8201528181610d2701528181610dc401528181610e6a01528181610f0d015281816110f10152818161111601526111b001526128465ff3fe608060405234801561000f575f80fd5b5060043610610109575f3560e01c8063b47b2fb1116100a0578063dc4c90d31161006f578063dc4c90d314610340578063dc98354e1461035e578063e1b4af691461038e578063ebb25411146103be578063ec6bf0f4146103ef57610109565b8063b47b2fb114610291578063b6a8b0fa146102c2578063c19cc87a146102f2578063c4e833ce1461032257610109565b806368b6ff09116100dc57806368b6ff09146101cf5780636c2bbe7e146101ff5780636fe7e6eb146102305780639f063efc1461026057610109565b806321d0ee701461010d578063259982e51461013d57806325f143d91461016d578063575e24b41461019d575b5f80fd5b610127600480360381019061012291906117c6565b61041f565b6040516101349190611886565b60405180910390f35b610157600480360381019061015291906117c6565b61051e565b6040516101649190611886565b60405180910390f35b610187600480360381019061018291906118d2565b610720565b6040516101949190611a75565b60405180910390f35b6101b760048036038101906101b29190611ab3565b6108f6565b6040516101c693929190611b98565b60405180910390f35b6101e960048036038101906101e491906118d2565b61099c565b6040516101f69190611a75565b60405180910390f35b61021960048036038101906102149190611bf7565b610c7e565b604051610227929190611cb4565b60405180910390f35b61024a60048036038101906102459190611d3b565b610d24565b6040516102579190611886565b60405180910390f35b61027a60048036038101906102759190611bf7565b610dc0565b604051610288929190611cb4565b60405180910390f35b6102ab60048036038101906102a69190611da0565b610e66565b6040516102b9929190611e54565b60405180910390f35b6102dc60048036038101906102d79190611ea5565b610f0a565b6040516102e99190611886565b60405180910390f35b61030c60048036038101906103079190611f67565b610faa565b6040516103199190611ff8565b60405180910390f35b61032a611066565b604051610337919061212f565b60405180910390f35b6103486110ef565b604051610355919061219b565b60405180910390f35b610378600480360381019061037391906121b4565b611113565b6040516103859190611886565b60405180910390f35b6103a860048036038101906103a39190611ea5565b6111ad565b6040516103b59190611886565b60405180910390f35b6103d860048036038101906103d39190612204565b61124d565b6040516103e6929190612284565b60405180910390f35b610409600480360381019061040491906122ab565b6112c8565b6040516104169190611ff8565b60405180910390f35b5f7f000000000000000000000000000000000000000000000000000000000000000073ffffffffffffffffffffffffffffffffffffffff163373ffffffffffffffffffffffffffffffffffffffff16146104a5576040517fae18210a00000000000000000000000000000000000000000000000000000000815260040160405180910390fd5b5f83838101906104b59190612324565b90505f806104c483898961124d565b915091506104d28282611384565b610508576040517f5d63063500000000000000000000000000000000000000000000000000000000815260040160405180910390fd5b6321d0ee7060e01b935050505095945050505050565b5f7f000000000000000000000000000000000000000000000000000000000000000073ffffffffffffffffffffffffffffffffffffffff163373ffffffffffffffffffffffffffffffffffffffff16146105a4576040517fae18210a00000000000000000000000000000000000000000000000000000000815260040160405180910390fd5b5f83838101906105b4919061247a565b90505f806105c6835f0151898961124d565b9150915060015f8281526020019081526020015f2082908060018154018082558091505060019003905f5260205f20015f9091909190915055825f808381526020019081526020015f205f8481526020019081526020015f205f820151815f015f6101000a81548173ffffffffffffffffffffffffffffffffffffffff021916908373ffffffffffffffffffffffffffffffffffffffff1602179055506020820151815f0160146101000a81548160ff02191690831515021790555060408201518160010155606082015181600201559050508181845f015173ffffffffffffffffffffffffffffffffffffffff167f60bd7d1e12326a0b2cbdd1a725941eb6a63ba48fbe0982e62b9374838689f09d5f808681526020019081526020015f205f8781526020019081526020015f2060405161070291906125b5565b60405180910390a463259982e560e01b935050505095945050505050565b60605f60015f8481526020019081526020015f208054905067ffffffffffffffff81111561075157610750612363565b5b60405190808252806020026020018201604052801561078a57816020015b6107776115df565b81526020019060019003908161076f5790505b5090505f5b60015f8581526020019081526020015f20805490508110156108ec57604051806040016040528060015f8781526020019081526020015f2083815481106107d9576107d86125ce565b5b905f5260205f20015481526020015f808781526020019081526020015f205f60015f8981526020019081526020015f20858154811061081b5761081a6125ce565b5b905f5260205f20015481526020019081526020015f206040518060800160405290815f82015f9054906101000a900473ffffffffffffffffffffffffffffffffffffffff1673ffffffffffffffffffffffffffffffffffffffff1673ffffffffffffffffffffffffffffffffffffffff1681526020015f820160149054906101000a900460ff16151515158152602001600182015481526020016002820154815250508152508282815181106108d4576108d36125ce565b5b6020026020010181905250808060010191505061078f565b5080915050919050565b5f805f7f000000000000000000000000000000000000000000000000000000000000000073ffffffffffffffffffffffffffffffffffffffff163373ffffffffffffffffffffffffffffffffffffffff161461097e576040517fae18210a00000000000000000000000000000000000000000000000000000000815260040160405180910390fd5b61098b88888888886113e0565b925092509250955095509592505050565b60605f805f90505b60015f8581526020019081526020015f2080549050811015610acc575f60015f8681526020019081526020015f2082815481106109e4576109e36125ce565b5b905f5260205f20015490505f805f8781526020019081526020015f205f8381526020019081526020015f206040518060800160405290815f82015f9054906101000a900473ffffffffffffffffffffffffffffffffffffffff1673ffffffffffffffffffffffffffffffffffffffff1673ffffffffffffffffffffffffffffffffffffffff1681526020015f820160149054906101000a900460ff16151515158152602001600182015481526020016002820154815250509050610aa781611415565b431015610abd578380610ab990612628565b9450505b505080806001019150506109a4565b505f8167ffffffffffffffff811115610ae857610ae7612363565b5b604051908082528060200260200182016040528015610b2157816020015b610b0e6115df565b815260200190600190039081610b065790505b5090505f5b60015f8681526020019081526020015f2080549050811015610c73575f60015f8781526020019081526020015f208281548110610b6657610b656125ce565b5b905f5260205f20015490505f805f8881526020019081526020015f205f8381526020019081526020015f206040518060800160405290815f82015f9054906101000a900473ffffffffffffffffffffffffffffffffffffffff1673ffffffffffffffffffffffffffffffffffffffff1673ffffffffffffffffffffffffffffffffffffffff1681526020015f820160149054906101000a900460ff16151515158152602001600182015481526020016002820154815250509050610c2981611415565b431015610c6457604051806040016040528083815260200182815250848481518110610c5857610c576125ce565b5b60200260200101819052505b50508080600101915050610b26565b508092505050919050565b5f807f000000000000000000000000000000000000000000000000000000000000000073ffffffffffffffffffffffffffffffffffffffff163373ffffffffffffffffffffffffffffffffffffffff1614610d05576040517fae18210a00000000000000000000000000000000000000000000000000000000815260040160405180910390fd5b610d1489898989898989611431565b9150915097509795505050505050565b5f7f000000000000000000000000000000000000000000000000000000000000000073ffffffffffffffffffffffffffffffffffffffff163373ffffffffffffffffffffffffffffffffffffffff1614610daa576040517fae18210a00000000000000000000000000000000000000000000000000000000815260040160405180910390fd5b610db685858585611465565b9050949350505050565b5f807f000000000000000000000000000000000000000000000000000000000000000073ffffffffffffffffffffffffffffffffffffffff163373ffffffffffffffffffffffffffffffffffffffff1614610e47576040517fae18210a00000000000000000000000000000000000000000000000000000000815260040160405180910390fd5b610e5689898989898989611498565b9150915097509795505050505050565b5f807f000000000000000000000000000000000000000000000000000000000000000073ffffffffffffffffffffffffffffffffffffffff163373ffffffffffffffffffffffffffffffffffffffff1614610eed576040517fae18210a00000000000000000000000000000000000000000000000000000000815260040160405180910390fd5b610efb8888888888886114cc565b91509150965096945050505050565b5f7f000000000000000000000000000000000000000000000000000000000000000073ffffffffffffffffffffffffffffffffffffffff163373ffffffffffffffffffffffffffffffffffffffff1614610f90576040517fae18210a00000000000000000000000000000000000000000000000000000000815260040160405180910390fd5b610f9e878787878787611500565b90509695505050505050565b610fb2611601565b5f808481526020019081526020015f205f8381526020019081526020015f206040518060800160405290815f82015f9054906101000a900473ffffffffffffffffffffffffffffffffffffffff1673ffffffffffffffffffffffffffffffffffffffff1673ffffffffffffffffffffffffffffffffffffffff1681526020015f820160149054906101000a900460ff1615151515815260200160018201548152602001600282015481525050905092915050565b61106e61163d565b604051806101c001604052805f151581526020015f151581526020016001151581526020015f151581526020016001151581526020015f151581526020015f151581526020015f151581526020015f151581526020015f151581526020015f151581526020015f151581526020015f151581526020015f1515815250905090565b7f000000000000000000000000000000000000000000000000000000000000000081565b5f7f000000000000000000000000000000000000000000000000000000000000000073ffffffffffffffffffffffffffffffffffffffff163373ffffffffffffffffffffffffffffffffffffffff1614611199576040517fae18210a00000000000000000000000000000000000000000000000000000000815260040160405180910390fd5b6111a4848484611533565b90509392505050565b5f7f000000000000000000000000000000000000000000000000000000000000000073ffffffffffffffffffffffffffffffffffffffff163373ffffffffffffffffffffffffffffffffffffffff1614611233576040517fae18210a00000000000000000000000000000000000000000000000000000000815260040160405180910390fd5b611241878787878787611566565b90509695505050505050565b5f80611268848036038101906112639190612787565b611599565b90506112be835f01602081019061127f91906127b2565b84602001602081019061129291906127b2565b85606001358873ffffffffffffffffffffffffffffffffffffffff166115a5909392919063ffffffff16565b9150935093915050565b6112d0611601565b5f808381526020019081526020015f205f8481526020019081526020015f206040518060800160405290815f82015f9054906101000a900473ffffffffffffffffffffffffffffffffffffffff1673ffffffffffffffffffffffffffffffffffffffff1673ffffffffffffffffffffffffffffffffffffffff1681526020015f820160149054906101000a900460ff1615151515815260200160018201548152602001600282015481525050905092915050565b5f805f8381526020019081526020015f205f8481526020019081526020015f20600101545f808481526020019081526020015f205f8581526020019081526020015f20600201546113d591906127dd565b431015905092915050565b5f805f6040517f0a85dc2900000000000000000000000000000000000000000000000000000000815260040160405180910390fd5b5f8160400151826060015161142a91906127dd565b9050919050565b5f806040517f0a85dc2900000000000000000000000000000000000000000000000000000000815260040160405180910390fd5b5f6040517f0a85dc2900000000000000000000000000000000000000000000000000000000815260040160405180910390fd5b5f806040517f0a85dc2900000000000000000000000000000000000000000000000000000000815260040160405180910390fd5b5f806040517f0a85dc2900000000000000000000000000000000000000000000000000000000815260040160405180910390fd5b5f6040517f0a85dc2900000000000000000000000000000000000000000000000000000000815260040160405180910390fd5b5f6040517f0a85dc2900000000000000000000000000000000000000000000000000000000815260040160405180910390fd5b5f6040517f0a85dc2900000000000000000000000000000000000000000000000000000000815260040160405180910390fd5b5f60a082209050919050565b5f604051826026820152836006820152846003820152858152603a600c82012091505f60408201525f60208201525f815250949350505050565b60405180604001604052805f80191681526020016115fb611601565b81525090565b60405180608001604052805f73ffffffffffffffffffffffffffffffffffffffff1681526020015f151581526020015f81526020015f81525090565b604051806101c001604052805f151581526020015f151581526020015f151581526020015f151581526020015f151581526020015f151581526020015f151581526020015f151581526020015f151581526020015f151581526020015f151581526020015f151581526020015f151581526020015f151581525090565b5f604051905090565b5f80fd5b5f80fd5b5f73ffffffffffffffffffffffffffffffffffffffff82169050919050565b5f6116f4826116cb565b9050919050565b611704816116ea565b811461170e575f80fd5b50565b5f8135905061171f816116fb565b92915050565b5f80fd5b5f60a0828403121561173e5761173d611725565b5b81905092915050565b5f6080828403121561175c5761175b611725565b5b81905092915050565b5f80fd5b5f80fd5b5f80fd5b5f8083601f84011261178657611785611765565b5b8235905067ffffffffffffffff8111156117a3576117a2611769565b5b6020830191508360018202830111156117bf576117be61176d565b5b9250929050565b5f805f805f61016086880312156117e0576117df6116c3565b5b5f6117ed88828901611711565b95505060206117fe88828901611729565b94505060c061180f88828901611747565b93505061014086013567ffffffffffffffff811115611831576118306116c7565b5b61183d88828901611771565b92509250509295509295909350565b5f7fffffffff0000000000000000000000000000000000000000000000000000000082169050919050565b6118808161184c565b82525050565b5f6020820190506118995f830184611877565b92915050565b5f819050919050565b6118b18161189f565b81146118bb575f80fd5b50565b5f813590506118cc816118a8565b92915050565b5f602082840312156118e7576118e66116c3565b5b5f6118f4848285016118be565b91505092915050565b5f81519050919050565b5f82825260208201905092915050565b5f819050602082019050919050565b61192f8161189f565b82525050565b61193e816116ea565b82525050565b5f8115159050919050565b61195881611944565b82525050565b5f819050919050565b6119708161195e565b82525050565b608082015f82015161198a5f850182611935565b50602082015161199d602085018261194f565b5060408201516119b06040850182611967565b5060608201516119c36060850182611967565b50505050565b60a082015f8201516119dd5f850182611926565b5060208201516119f06020850182611976565b50505050565b5f611a0183836119c9565b60a08301905092915050565b5f602082019050919050565b5f611a23826118fd565b611a2d8185611907565b9350611a3883611917565b805f5b83811015611a68578151611a4f88826119f6565b9750611a5a83611a0d565b925050600181019050611a3b565b5085935050505092915050565b5f6020820190508181035f830152611a8d8184611a19565b905092915050565b5f60608284031215611aaa57611aa9611725565b5b81905092915050565b5f805f805f6101408688031215611acd57611acc6116c3565b5b5f611ada88828901611711565b9550506020611aeb88828901611729565b94505060c0611afc88828901611a95565b93505061012086013567ffffffffffffffff811115611b1e57611b1d6116c7565b5b611b2a88828901611771565b92509250509295509295909350565b5f819050919050565b5f819050919050565b5f611b65611b60611b5b84611b39565b611b42565b611b39565b9050919050565b611b7581611b4b565b82525050565b5f62ffffff82169050919050565b611b9281611b7b565b82525050565b5f606082019050611bab5f830186611877565b611bb86020830185611b6c565b611bc56040830184611b89565b949350505050565b611bd681611b39565b8114611be0575f80fd5b50565b5f81359050611bf181611bcd565b92915050565b5f805f805f805f6101a0888a031215611c1357611c126116c3565b5b5f611c208a828b01611711565b9750506020611c318a828b01611729565b96505060c0611c428a828b01611747565b955050610140611c548a828b01611be3565b945050610160611c668a828b01611be3565b93505061018088013567ffffffffffffffff811115611c8857611c876116c7565b5b611c948a828b01611771565b925092505092959891949750929550565b611cae81611b4b565b82525050565b5f604082019050611cc75f830185611877565b611cd46020830184611ca5565b9392505050565b611ce4816116cb565b8114611cee575f80fd5b50565b5f81359050611cff81611cdb565b92915050565b5f8160020b9050919050565b611d1a81611d05565b8114611d24575f80fd5b50565b5f81359050611d3581611d11565b92915050565b5f805f806101008587031215611d5457611d536116c3565b5b5f611d6187828801611711565b9450506020611d7287828801611729565b93505060c0611d8387828801611cf1565b92505060e0611d9487828801611d27565b91505092959194509250565b5f805f805f806101608789031215611dbb57611dba6116c3565b5b5f611dc889828a01611711565b9650506020611dd989828a01611729565b95505060c0611dea89828a01611a95565b945050610120611dfc89828a01611be3565b93505061014087013567ffffffffffffffff811115611e1e57611e1d6116c7565b5b611e2a89828a01611771565b92509250509295509295509295565b5f81600f0b9050919050565b611e4e81611e39565b82525050565b5f604082019050611e675f830185611877565b611e746020830184611e45565b9392505050565b611e848161195e565b8114611e8e575f80fd5b50565b5f81359050611e9f81611e7b565b92915050565b5f805f805f806101208789031215611ec057611ebf6116c3565b5b5f611ecd89828a01611711565b9650506020611ede89828a01611729565b95505060c0611eef89828a01611e91565b94505060e0611f0089828a01611e91565b93505061010087013567ffffffffffffffff811115611f2257611f216116c7565b5b611f2e89828a01611771565b92509250509295509295509295565b611f468161189f565b8114611f50575f80fd5b50565b5f81359050611f6181611f3d565b92915050565b5f8060408385031215611f7d57611f7c6116c3565b5b5f611f8a858286016118be565b9250506020611f9b85828601611f53565b9150509250929050565b608082015f820151611fb95f850182611935565b506020820151611fcc602085018261194f565b506040820151611fdf6040850182611967565b506060820151611ff26060850182611967565b50505050565b5f60808201905061200b5f830184611fa5565b92915050565b6101c082015f8201516120265f85018261194f565b506020820151612039602085018261194f565b50604082015161204c604085018261194f565b50606082015161205f606085018261194f565b506080820151612072608085018261194f565b5060a082015161208560a085018261194f565b5060c082015161209860c085018261194f565b5060e08201516120ab60e085018261194f565b506101008201516120c061010085018261194f565b506101208201516120d561012085018261194f565b506101408201516120ea61014085018261194f565b506101608201516120ff61016085018261194f565b5061018082015161211461018085018261194f565b506101a08201516121296101a085018261194f565b50505050565b5f6101c0820190506121435f830184612011565b92915050565b5f61216361215e612159846116cb565b611b42565b6116cb565b9050919050565b5f61217482612149565b9050919050565b5f6121858261216a565b9050919050565b6121958161217b565b82525050565b5f6020820190506121ae5f83018461218c565b92915050565b5f805f60e084860312156121cb576121ca6116c3565b5b5f6121d886828701611711565b93505060206121e986828701611729565b92505060c06121fa86828701611cf1565b9150509250925092565b5f805f610140848603121561221c5761221b6116c3565b5b5f61222986828701611711565b935050602061223a86828701611729565b92505060c061224b86828701611747565b9150509250925092565b61225e8161189f565b82525050565b5f61226e8261189f565b9050919050565b61227e81612264565b82525050565b5f6040820190506122975f830185612255565b6122a46020830184612275565b9392505050565b5f80604083850312156122c1576122c06116c3565b5b5f6122ce85828601611f53565b92505060206122df858286016118be565b9150509250929050565b5f6122f3826116cb565b9050919050565b612303816122e9565b811461230d575f80fd5b50565b5f8135905061231e816122fa565b92915050565b5f60208284031215612339576123386116c3565b5b5f61234684828501612310565b91505092915050565b5f80fd5b5f601f19601f8301169050919050565b7f4e487b71000000000000000000000000000000000000000000000000000000005f52604160045260245ffd5b61239982612353565b810181811067ffffffffffffffff821117156123b8576123b7612363565b5b80604052505050565b5f6123ca6116ba565b90506123d68282612390565b919050565b6123e481611944565b81146123ee575f80fd5b50565b5f813590506123ff816123db565b92915050565b5f6080828403121561241a5761241961234f565b5b61242460806123c1565b90505f61243384828501611711565b5f830152506020612446848285016123f1565b602083015250604061245a84828501611e91565b604083015250606061246e84828501611e91565b60608301525092915050565b5f6080828403121561248f5761248e6116c3565b5b5f61249c84828501612405565b91505092915050565b5f815f1c9050919050565b5f73ffffffffffffffffffffffffffffffffffffffff82169050919050565b5f6124e16124dc836124a5565b6124b0565b9050919050565b5f8160a01c9050919050565b5f60ff82169050919050565b5f61251261250d836124e8565b6124f4565b9050919050565b5f819050919050565b5f61253461252f836124a5565b612519565b9050919050565b608082015f80830154905061254f816124cf565b61255b5f860182611935565b5061256581612500565b612572602086018261194f565b506001830154905061258381612522565b6125906040860182611967565b50600283015490506125a181612522565b6125ae6060860182611967565b5050505050565b5f6080820190506125c85f83018461253b565b92915050565b7f4e487b71000000000000000000000000000000000000000000000000000000005f52603260045260245ffd5b7f4e487b71000000000000000000000000000000000000000000000000000000005f52601160045260245ffd5b5f6126328261195e565b91507fffffffffffffffffffffffffffffffffffffffffffffffffffffffffffffffff8203612664576126636125fb565b5b600182019050919050565b612678816116ea565b8114612682575f80fd5b50565b5f813590506126938161266f565b92915050565b6126a281611b7b565b81146126ac575f80fd5b50565b5f813590506126bd81612699565b92915050565b5f6126cd826116ea565b9050919050565b6126dd816126c3565b81146126e7575f80fd5b50565b5f813590506126f8816126d4565b92915050565b5f60a082840312156127135761271261234f565b5b61271d60a06123c1565b90505f61272c84828501612685565b5f83015250602061273f84828501612685565b6020830152506040612753848285016126af565b604083015250606061276784828501611d27565b606083015250608061277b848285016126ea565b60808301525092915050565b5f60a0828403121561279c5761279b6116c3565b5b5f6127a9848285016126fe565b91505092915050565b5f602082840312156127c7576127c66116c3565b5b5f6127d484828501611d27565b91505092915050565b5f6127e78261195e565b91506127f28361195e565b925082820190508082111561280a576128096125fb565b5b9291505056fea26469706673582212207f2034b0cc32b373dd515753e611cce286030b5e2e679f3d8ddd1efa1b3b3d2064736f6c634300081a0033","linkReferences":{}},"methodIdentifiers":{"afterAddLiquidity(address,(address,address,uint24,int24,address),(int24,int24,int256,bytes32),int256,int256,bytes)":"9f063efc","afterDonate(address,(address,address,uint24,int24,address),uint256,uint256,bytes)":"e1b4af69","afterInitialize(address,(address,address,uint24,int24,address),uint160,int24)":"6fe7e6eb","afterRemoveLiquidity(address,(address,address,uint24,int24,address),(int24,int24,int256,bytes32),int256,int256,bytes)":"6c2bbe7e","afterSwap(address,(address,address,uint24,int24,address),(bool,int256,uint160),int256,bytes)":"b47b2fb1","beforeAddLiquidity(address,(address,address,uint24,int24,address),(int24,int24,int256,bytes32),bytes)":"259982e5","beforeDonate(address,(address,address,uint24,int24,address),uint256,uint256,bytes)":"b6a8b0fa","beforeInitialize(address,(address,address,uint24,int24,address),uint160)":"dc98354e","beforeRemoveLiquidity(address,(address,address,uint24,int24,address),(int24,int24,int256,bytes32),bytes)":"21d0ee70","beforeSwap(address,(address,address,uint24,int24,address),(bool,int256,uint160),bytes)":"575e24b4","getCommitment(bytes32,bytes32)":"c19cc87a","getHookPermissions()":"c4e833ce","getPoolCommitments(bytes32)":"25f143d9","getPoolExpiredCommitments(bytes32)":"68b6ff09","getPositionPoolTimeCommitment(bytes32,bytes32)":"ec6bf0f4","getTimeCommitmentKeys(address,(address,address,uint24,int24,address),(int24,int24,int256,bytes32))":"ebb25411","poolManager()":"dc4c90d3"},"id":92}