{"abi":[{"type":"function","name":"isJITHook","inputs":[{"name":"jitHook","type":"address","internalType":"address"}],"outputs":[{"name":"","type":"bool","internalType":"bool"}],"stateMutability":"view"},{"type":"function","name":"supportsInterface","inputs":[{"name":"interfaceId","type":"bytes4","internalType":"bytes4"}],"outputs":[{"name":"","type":"bool","internalType":"bool"}],"stateMutability":"view"}],"bytecode":{"object":"0x6080604052348015600e575f80fd5b506105bc8061001c5f395ff3fe608060405234801561000f575f80fd5b5060043610610034575f3560e01c806301ffc9a7146100385780631d1a22a014610068575b5f80fd5b610052600480360381019061004d91906103b5565b610098565b60405161005f91906103fa565b60405180910390f35b610082600480360381019061007d919061046d565b61010b565b60405161008f91906103fa565b60405180910390f35b5f6100a28261015c565b8061010457505f80837bffffffffffffffffffffffffffffffffffffffffffffffffffffffff19167bffffffffffffffffffffffffffffffffffffffffffffffffffffffff191681526020019081526020015f205f9054906101000a900460ff165b9050919050565b5f6101557fe3250b05000000000000000000000000000000000000000000000000000000008373ffffffffffffffffffffffffffffffffffffffff166101c590919063ffffffff16565b9050919050565b5f7f01ffc9a7000000000000000000000000000000000000000000000000000000007bffffffffffffffffffffffffffffffffffffffffffffffffffffffff1916827bffffffffffffffffffffffffffffffffffffffffffffffffffffffff1916149050919050565b5f6101cf836101e9565b80156101e157506101e08383610235565b5b905092915050565b5f610214827f01ffc9a700000000000000000000000000000000000000000000000000000000610235565b801561022e575061022c8263ffffffff60e01b610235565b155b9050919050565b5f806301ffc9a760e01b8360405160240161025091906104a7565b604051602081830303815290604052907bffffffffffffffffffffffffffffffffffffffffffffffffffffffff19166020820180517bffffffffffffffffffffffffffffffffffffffffffffffffffffffff838183161783525050505090505f808573ffffffffffffffffffffffffffffffffffffffff16617530846040516102d99190610512565b5f604051808303818686fa925050503d805f8114610312576040519150601f19603f3d011682016040523d82523d5f602084013e610317565b606091505b5091509150602081511015610331575f9350505050610356565b81801561035057505f8180602001905181019061034e919061055b565b115b93505050505b92915050565b5f80fd5b5f7fffffffff0000000000000000000000000000000000000000000000000000000082169050919050565b61039481610360565b811461039e575f80fd5b50565b5f813590506103af8161038b565b92915050565b5f602082840312156103ca576103c961035c565b5b5f6103d7848285016103a1565b91505092915050565b5f8115159050919050565b6103f4816103e0565b82525050565b5f60208201905061040d5f8301846103eb565b92915050565b5f73ffffffffffffffffffffffffffffffffffffffff82169050919050565b5f61043c82610413565b9050919050565b61044c81610432565b8114610456575f80fd5b50565b5f8135905061046781610443565b92915050565b5f602082840312156104825761048161035c565b5b5f61048f84828501610459565b91505092915050565b6104a181610360565b82525050565b5f6020820190506104ba5f830184610498565b92915050565b5f81519050919050565b5f81905092915050565b8281835e5f83830152505050565b5f6104ec826104c0565b6104f681856104ca565b93506105068185602086016104d4565b80840191505092915050565b5f61051d82846104e2565b915081905092915050565b5f819050919050565b61053a81610528565b8114610544575f80fd5b50565b5f8151905061055581610531565b92915050565b5f602082840312156105705761056f61035c565b5b5f61057d84828501610547565b9150509291505056fea264697066735822122072d92e2f98149344fc2ae8665cfee9398f953943822b63646e2aa8a83331a1af64736f6c634300081a0033","linkReferences":{}},"methodIdentifiers":{"isJITHook(address)":"1d1a22a0","supportsInterface(bytes4)":"01ffc9a7"},"id":90}